{
  "_format": "hh-sol-artifact-1",
  "contractName": "Ballot",
  "sourceName": "contracts/TokenizedBallot.sol",
  "abi": [
    {
      "inputs": [
        {
          "internalType": "bytes32[]",
          "name": "proposalNames",
          "type": "bytes32[]"
        },
        {
          "internalType": "address",
          "name": "_tokenContract",
          "type": "address"
        },
        {
          "internalType": "uint256",
          "name": "_targetBlockNumber",
          "type": "uint256"
        }
      ],
      "stateMutability": "nonpayable",
      "type": "constructor"
    },
    {
      "inputs": [
        {
          "internalType": "uint256",
          "name": "",
          "type": "uint256"
        }
      ],
      "name": "proposals",
      "outputs": [
        {
          "internalType": "bytes32",
          "name": "name",
          "type": "bytes32"
        },
        {
          "internalType": "uint256",
          "name": "voteCount",
          "type": "uint256"
        }
      ],
      "stateMutability": "view",
      "type": "function"
    },
    {
      "inputs": [],
      "name": "targetBlockNumber",
      "outputs": [
        {
          "internalType": "uint256",
          "name": "",
          "type": "uint256"
        }
      ],
      "stateMutability": "view",
      "type": "function"
    },
    {
      "inputs": [],
      "name": "tokenContract",
      "outputs": [
        {
          "internalType": "contract IMyToken",
          "name": "",
          "type": "address"
        }
      ],
      "stateMutability": "view",
      "type": "function"
    },
    {
      "inputs": [
        {
          "internalType": "uint256",
          "name": "proposal",
          "type": "uint256"
        },
        {
          "internalType": "uint256",
          "name": "amount",
          "type": "uint256"
        }
      ],
      "name": "vote",
      "outputs": [],
      "stateMutability": "nonpayable",
      "type": "function"
    },
    {
      "inputs": [
        {
          "internalType": "address",
          "name": "account",
          "type": "address"
        }
      ],
      "name": "votingPower",
      "outputs": [
        {
          "internalType": "uint256",
          "name": "",
          "type": "uint256"
        }
      ],
      "stateMutability": "view",
      "type": "function"
    },
    {
      "inputs": [
        {
          "internalType": "address",
          "name": "",
          "type": "address"
        }
      ],
      "name": "votingPowerSpent",
      "outputs": [
        {
          "internalType": "uint256",
          "name": "",
          "type": "uint256"
        }
      ],
      "stateMutability": "view",
      "type": "function"
    },
    {
      "inputs": [],
      "name": "winnerName",
      "outputs": [
        {
          "internalType": "bytes32",
          "name": "winnerName_",
          "type": "bytes32"
        }
      ],
      "stateMutability": "view",
      "type": "function"
    },
    {
      "inputs": [],
      "name": "winningProposal",
      "outputs": [
        {
          "internalType": "uint256",
          "name": "winningProposal_",
          "type": "uint256"
        }
      ],
      "stateMutability": "view",
      "type": "function"
    }
  ],
  "bytecode": "0x608060405234801561001057600080fd5b5060405161069138038061069183398101604081905261002f91610100565b600280546001600160a01b0319166001600160a01b038416179055600181905560005b83518110156100c5576003604051806040016040528086848151811061007a5761007a6101d8565b602090810291909101810151825260009181018290528354600181810186559483529181902083516002909302019182559190910151910155806100bd816101ee565b915050610052565b50505050610215565b634e487b7160e01b600052604160045260246000fd5b80516001600160a01b03811681146100fb57600080fd5b919050565b60008060006060848603121561011557600080fd5b83516001600160401b038082111561012c57600080fd5b818601915086601f83011261014057600080fd5b8151602082821115610154576101546100ce565b8160051b604051601f19603f83011681018181108682111715610179576101796100ce565b60405292835281830193508481018201928a84111561019757600080fd5b948201945b838610156101b55785518552948201949382019361019c565b97506101c490508882016100e4565b955050505050604084015190509250925092565b634e487b7160e01b600052603260045260246000fd5b60006001820161020e57634e487b7160e01b600052601160045260246000fd5b5060010190565b61046d806102246000396000f3fe608060405234801561001057600080fd5b50600436106100885760003560e01c8063a72003511161005b578063a720035114610104578063b384abef14610124578063c07473f614610139578063e2ba53f01461014c57600080fd5b8063013cf08b1461008d5780632a8cd29e146100ba57806355a373d6146100d1578063609ff1bd146100fc575b600080fd5b6100a061009b366004610348565b610154565b604080519283526020830191909152015b60405180910390f35b6100c360015481565b6040519081526020016100b1565b6002546100e4906001600160a01b031681565b6040516001600160a01b0390911681526020016100b1565b6100c3610182565b6100c3610112366004610361565b60006020819052908152604090205481565b610137610132366004610391565b6101ff565b005b6100c3610147366004610361565b610277565b6100c3610315565b6003818154811061016457600080fd5b60009182526020909120600290910201805460019091015490915082565b600080805b6003548110156101fa5781600382815481106101a5576101a56103b3565b90600052602060002090600202016001015411156101e857600381815481106101d0576101d06103b3565b90600052602060002090600202016001015491508092505b806101f2816103df565b915050610187565b505090565b8061020933610277565b101561021457600080fd5b33600090815260208190526040812080548392906102339084906103f8565b92505081905550806003838154811061024e5761024e6103b3565b9060005260206000209060020201600101600082825461026e91906103f8565b90915550505050565b6001600160a01b03818116600081815260208190526040808220546002546001549251630748d63560e31b81526004810195909552602485019290925291939192911690633a46b1a890604401602060405180830381865afa1580156102e1573d6000803e3d6000fd5b505050506040513d601f19601f82011682018060405250810190610305919061040b565b61030f9190610424565b92915050565b60006003610321610182565b81548110610331576103316103b3565b906000526020600020906002020160000154905090565b60006020828403121561035a57600080fd5b5035919050565b60006020828403121561037357600080fd5b81356001600160a01b038116811461038a57600080fd5b9392505050565b600080604083850312156103a457600080fd5b50508035926020909101359150565b634e487b7160e01b600052603260045260246000fd5b634e487b7160e01b600052601160045260246000fd5b6000600182016103f1576103f16103c9565b5060010190565b8082018082111561030f5761030f6103c9565b60006020828403121561041d57600080fd5b5051919050565b8181038181111561030f5761030f6103c956fea2646970667358221220d2a25502dfc5fcefc79dbebe0ee047dc6773eec89384a4ebe189b1606d5ce16b64736f6c63430008110033",
  "linkReferences": {},
  "deployedLinkReferences": {}
}