{
  "_format": "hh-sol-artifact-1",
  "contractName": "MyToken",
  "sourceName": "contracts/ERC20Votes.sol",
  "abi": [
    {
      "inputs": [],
      "stateMutability": "nonpayable",
      "type": "constructor"
    },
    {
      "anonymous": false,
      "inputs": [
        {
          "indexed": true,
          "internalType": "address",
          "name": "owner",
          "type": "address"
        },
        {
          "indexed": true,
          "internalType": "address",
          "name": "spender",
          "type": "address"
        },
        {
          "indexed": false,
          "internalType": "uint256",
          "name": "value",
          "type": "uint256"
        }
      ],
      "name": "Approval",
      "type": "event"
    },
    {
      "anonymous": false,
      "inputs": [
        {
          "indexed": true,
          "internalType": "address",
          "name": "delegator",
          "type": "address"
        },
        {
          "indexed": true,
          "internalType": "address",
          "name": "fromDelegate",
          "type": "address"
        },
        {
          "indexed": true,
          "internalType": "address",
          "name": "toDelegate",
          "type": "address"
        }
      ],
      "name": "DelegateChanged",
      "type": "event"
    },
    {
      "anonymous": false,
      "inputs": [
        {
          "indexed": true,
          "internalType": "address",
          "name": "delegate",
          "type": "address"
        },
        {
          "indexed": false,
          "internalType": "uint256",
          "name": "previousBalance",
          "type": "uint256"
        },
        {
          "indexed": false,
          "internalType": "uint256",
          "name": "newBalance",
          "type": "uint256"
        }
      ],
      "name": "DelegateVotesChanged",
      "type": "event"
    },
    {
      "anonymous": false,
      "inputs": [
        {
          "indexed": true,
          "internalType": "bytes32",
          "name": "role",
          "type": "bytes32"
        },
        {
          "indexed": true,
          "internalType": "bytes32",
          "name": "previousAdminRole",
          "type": "bytes32"
        },
        {
          "indexed": true,
          "internalType": "bytes32",
          "name": "newAdminRole",
          "type": "bytes32"
        }
      ],
      "name": "RoleAdminChanged",
      "type": "event"
    },
    {
      "anonymous": false,
      "inputs": [
        {
          "indexed": true,
          "internalType": "bytes32",
          "name": "role",
          "type": "bytes32"
        },
        {
          "indexed": true,
          "internalType": "address",
          "name": "account",
          "type": "address"
        },
        {
          "indexed": true,
          "internalType": "address",
          "name": "sender",
          "type": "address"
        }
      ],
      "name": "RoleGranted",
      "type": "event"
    },
    {
      "anonymous": false,
      "inputs": [
        {
          "indexed": true,
          "internalType": "bytes32",
          "name": "role",
          "type": "bytes32"
        },
        {
          "indexed": true,
          "internalType": "address",
          "name": "account",
          "type": "address"
        },
        {
          "indexed": true,
          "internalType": "address",
          "name": "sender",
          "type": "address"
        }
      ],
      "name": "RoleRevoked",
      "type": "event"
    },
    {
      "anonymous": false,
      "inputs": [
        {
          "indexed": true,
          "internalType": "address",
          "name": "from",
          "type": "address"
        },
        {
          "indexed": true,
          "internalType": "address",
          "name": "to",
          "type": "address"
        },
        {
          "indexed": false,
          "internalType": "uint256",
          "name": "value",
          "type": "uint256"
        }
      ],
      "name": "Transfer",
      "type": "event"
    },
    {
      "inputs": [],
      "name": "DEFAULT_ADMIN_ROLE",
      "outputs": [
        {
          "internalType": "bytes32",
          "name": "",
          "type": "bytes32"
        }
      ],
      "stateMutability": "view",
      "type": "function"
    },
    {
      "inputs": [],
      "name": "DOMAIN_SEPARATOR",
      "outputs": [
        {
          "internalType": "bytes32",
          "name": "",
          "type": "bytes32"
        }
      ],
      "stateMutability": "view",
      "type": "function"
    },
    {
      "inputs": [],
      "name": "MINTER_ROLE",
      "outputs": [
        {
          "internalType": "bytes32",
          "name": "",
          "type": "bytes32"
        }
      ],
      "stateMutability": "view",
      "type": "function"
    },
    {
      "inputs": [
        {
          "internalType": "address",
          "name": "owner",
          "type": "address"
        },
        {
          "internalType": "address",
          "name": "spender",
          "type": "address"
        }
      ],
      "name": "allowance",
      "outputs": [
        {
          "internalType": "uint256",
          "name": "",
          "type": "uint256"
        }
      ],
      "stateMutability": "view",
      "type": "function"
    },
    {
      "inputs": [
        {
          "internalType": "address",
          "name": "spender",
          "type": "address"
        },
        {
          "internalType": "uint256",
          "name": "amount",
          "type": "uint256"
        }
      ],
      "name": "approve",
      "outputs": [
        {
          "internalType": "bool",
          "name": "",
          "type": "bool"
        }
      ],
      "stateMutability": "nonpayable",
      "type": "function"
    },
    {
      "inputs": [
        {
          "internalType": "address",
          "name": "account",
          "type": "address"
        }
      ],
      "name": "balanceOf",
      "outputs": [
        {
          "internalType": "uint256",
          "name": "",
          "type": "uint256"
        }
      ],
      "stateMutability": "view",
      "type": "function"
    },
    {
      "inputs": [
        {
          "internalType": "address",
          "name": "account",
          "type": "address"
        },
        {
          "internalType": "uint32",
          "name": "pos",
          "type": "uint32"
        }
      ],
      "name": "checkpoints",
      "outputs": [
        {
          "components": [
            {
              "internalType": "uint32",
              "name": "fromBlock",
              "type": "uint32"
            },
            {
              "internalType": "uint224",
              "name": "votes",
              "type": "uint224"
            }
          ],
          "internalType": "struct ERC20Votes.Checkpoint",
          "name": "",
          "type": "tuple"
        }
      ],
      "stateMutability": "view",
      "type": "function"
    },
    {
      "inputs": [],
      "name": "decimals",
      "outputs": [
        {
          "internalType": "uint8",
          "name": "",
          "type": "uint8"
        }
      ],
      "stateMutability": "view",
      "type": "function"
    },
    {
      "inputs": [
        {
          "internalType": "address",
          "name": "spender",
          "type": "address"
        },
        {
          "internalType": "uint256",
          "name": "subtractedValue",
          "type": "uint256"
        }
      ],
      "name": "decreaseAllowance",
      "outputs": [
        {
          "internalType": "bool",
          "name": "",
          "type": "bool"
        }
      ],
      "stateMutability": "nonpayable",
      "type": "function"
    },
    {
      "inputs": [
        {
          "internalType": "address",
          "name": "delegatee",
          "type": "address"
        }
      ],
      "name": "delegate",
      "outputs": [],
      "stateMutability": "nonpayable",
      "type": "function"
    },
    {
      "inputs": [
        {
          "internalType": "address",
          "name": "delegatee",
          "type": "address"
        },
        {
          "internalType": "uint256",
          "name": "nonce",
          "type": "uint256"
        },
        {
          "internalType": "uint256",
          "name": "expiry",
          "type": "uint256"
        },
        {
          "internalType": "uint8",
          "name": "v",
          "type": "uint8"
        },
        {
          "internalType": "bytes32",
          "name": "r",
          "type": "bytes32"
        },
        {
          "internalType": "bytes32",
          "name": "s",
          "type": "bytes32"
        }
      ],
      "name": "delegateBySig",
      "outputs": [],
      "stateMutability": "nonpayable",
      "type": "function"
    },
    {
      "inputs": [
        {
          "internalType": "address",
          "name": "account",
          "type": "address"
        }
      ],
      "name": "delegates",
      "outputs": [
        {
          "internalType": "address",
          "name": "",
          "type": "address"
        }
      ],
      "stateMutability": "view",
      "type": "function"
    },
    {
      "inputs": [
        {
          "internalType": "uint256",
          "name": "blockNumber",
          "type": "uint256"
        }
      ],
      "name": "getPastTotalSupply",
      "outputs": [
        {
          "internalType": "uint256",
          "name": "",
          "type": "uint256"
        }
      ],
      "stateMutability": "view",
      "type": "function"
    },
    {
      "inputs": [
        {
          "internalType": "address",
          "name": "account",
          "type": "address"
        },
        {
          "internalType": "uint256",
          "name": "blockNumber",
          "type": "uint256"
        }
      ],
      "name": "getPastVotes",
      "outputs": [
        {
          "internalType": "uint256",
          "name": "",
          "type": "uint256"
        }
      ],
      "stateMutability": "view",
      "type": "function"
    },
    {
      "inputs": [
        {
          "internalType": "bytes32",
          "name": "role",
          "type": "bytes32"
        }
      ],
      "name": "getRoleAdmin",
      "outputs": [
        {
          "internalType": "bytes32",
          "name": "",
          "type": "bytes32"
        }
      ],
      "stateMutability": "view",
      "type": "function"
    },
    {
      "inputs": [
        {
          "internalType": "address",
          "name": "account",
          "type": "address"
        }
      ],
      "name": "getVotes",
      "outputs": [
        {
          "internalType": "uint256",
          "name": "",
          "type": "uint256"
        }
      ],
      "stateMutability": "view",
      "type": "function"
    },
    {
      "inputs": [
        {
          "internalType": "bytes32",
          "name": "role",
          "type": "bytes32"
        },
        {
          "internalType": "address",
          "name": "account",
          "type": "address"
        }
      ],
      "name": "grantRole",
      "outputs": [],
      "stateMutability": "nonpayable",
      "type": "function"
    },
    {
      "inputs": [
        {
          "internalType": "bytes32",
          "name": "role",
          "type": "bytes32"
        },
        {
          "internalType": "address",
          "name": "account",
          "type": "address"
        }
      ],
      "name": "hasRole",
      "outputs": [
        {
          "internalType": "bool",
          "name": "",
          "type": "bool"
        }
      ],
      "stateMutability": "view",
      "type": "function"
    },
    {
      "inputs": [
        {
          "internalType": "address",
          "name": "spender",
          "type": "address"
        },
        {
          "internalType": "uint256",
          "name": "addedValue",
          "type": "uint256"
        }
      ],
      "name": "increaseAllowance",
      "outputs": [
        {
          "internalType": "bool",
          "name": "",
          "type": "bool"
        }
      ],
      "stateMutability": "nonpayable",
      "type": "function"
    },
    {
      "inputs": [
        {
          "internalType": "address",
          "name": "to",
          "type": "address"
        },
        {
          "internalType": "uint256",
          "name": "amount",
          "type": "uint256"
        }
      ],
      "name": "mint",
      "outputs": [],
      "stateMutability": "nonpayable",
      "type": "function"
    },
    {
      "inputs": [],
      "name": "name",
      "outputs": [
        {
          "internalType": "string",
          "name": "",
          "type": "string"
        }
      ],
      "stateMutability": "view",
      "type": "function"
    },
    {
      "inputs": [
        {
          "internalType": "address",
          "name": "owner",
          "type": "address"
        }
      ],
      "name": "nonces",
      "outputs": [
        {
          "internalType": "uint256",
          "name": "",
          "type": "uint256"
        }
      ],
      "stateMutability": "view",
      "type": "function"
    },
    {
      "inputs": [
        {
          "internalType": "address",
          "name": "account",
          "type": "address"
        }
      ],
      "name": "numCheckpoints",
      "outputs": [
        {
          "internalType": "uint32",
          "name": "",
          "type": "uint32"
        }
      ],
      "stateMutability": "view",
      "type": "function"
    },
    {
      "inputs": [
        {
          "internalType": "address",
          "name": "owner",
          "type": "address"
        },
        {
          "internalType": "address",
          "name": "spender",
          "type": "address"
        },
        {
          "internalType": "uint256",
          "name": "value",
          "type": "uint256"
        },
        {
          "internalType": "uint256",
          "name": "deadline",
          "type": "uint256"
        },
        {
          "internalType": "uint8",
          "name": "v",
          "type": "uint8"
        },
        {
          "internalType": "bytes32",
          "name": "r",
          "type": "bytes32"
        },
        {
          "internalType": "bytes32",
          "name": "s",
          "type": "bytes32"
        }
      ],
      "name": "permit",
      "outputs": [],
      "stateMutability": "nonpayable",
      "type": "function"
    },
    {
      "inputs": [
        {
          "internalType": "bytes32",
          "name": "role",
          "type": "bytes32"
        },
        {
          "internalType": "address",
          "name": "account",
          "type": "address"
        }
      ],
      "name": "renounceRole",
      "outputs": [],
      "stateMutability": "nonpayable",
      "type": "function"
    },
    {
      "inputs": [
        {
          "internalType": "bytes32",
          "name": "role",
          "type": "bytes32"
        },
        {
          "internalType": "address",
          "name": "account",
          "type": "address"
        }
      ],
      "name": "revokeRole",
      "outputs": [],
      "stateMutability": "nonpayable",
      "type": "function"
    },
    {
      "inputs": [
        {
          "internalType": "bytes4",
          "name": "interfaceId",
          "type": "bytes4"
        }
      ],
      "name": "supportsInterface",
      "outputs": [
        {
          "internalType": "bool",
          "name": "",
          "type": "bool"
        }
      ],
      "stateMutability": "view",
      "type": "function"
    },
    {
      "inputs": [],
      "name": "symbol",
      "outputs": [
        {
          "internalType": "string",
          "name": "",
          "type": "string"
        }
      ],
      "stateMutability": "view",
      "type": "function"
    },
    {
      "inputs": [],
      "name": "totalSupply",
      "outputs": [
        {
          "internalType": "uint256",
          "name": "",
          "type": "uint256"
        }
      ],
      "stateMutability": "view",
      "type": "function"
    },
    {
      "inputs": [
        {
          "internalType": "address",
          "name": "to",
          "type": "address"
        },
        {
          "internalType": "uint256",
          "name": "amount",
          "type": "uint256"
        }
      ],
      "name": "transfer",
      "outputs": [
        {
          "internalType": "bool",
          "name": "",
          "type": "bool"
        }
      ],
      "stateMutability": "nonpayable",
      "type": "function"
    },
    {
      "inputs": [
        {
          "internalType": "address",
          "name": "from",
          "type": "address"
        },
        {
          "internalType": "address",
          "name": "to",
          "type": "address"
        },
        {
          "internalType": "uint256",
          "name": "amount",
          "type": "uint256"
        }
      ],
      "name": "transferFrom",
      "outputs": [
        {
          "internalType": "bool",
          "name": "",
          "type": "bool"
        }
      ],
      "stateMutability": "nonpayable",
      "type": "function"
    }
  ],
  "bytecode": "0x6101406040523480156200001257600080fd5b506040518060400160405280600781526020016626bcaa37b5b2b760c91b81525080604051806040016040528060018152602001603160f81b8152506040518060400160405280600781526020016626bcaa37b5b2b760c91b815250604051806040016040528060038152602001624d544b60e81b81525081600390816200009b9190620002c7565b506004620000aa8282620002c7565b5050825160209384012082519284019290922060e08390526101008190524660a0818152604080517f8b73c3c69bb8fe3d512ecc4cf759cc79239f7b179b0ffacaa9a75d522b39400f818901819052818301979097526060810194909452608080850193909352308483018190528151808603909301835260c09485019091528151919096012090529290925261012052506200014b90506000336200017d565b620001777f9f2df0fed2c77648de5860a4cc508cd0818c85b8b8a1ab4ceeef8d981c8956a6336200017d565b62000393565b60008281526005602090815260408083206001600160a01b038516845290915290205460ff166200021e5760008281526005602090815260408083206001600160a01b03851684529091529020805460ff19166001179055620001dd3390565b6001600160a01b0316816001600160a01b0316837f2f8788117e7eff1d82e926ec794901d17c78024a50270940304540a733656f0d60405160405180910390a45b5050565b634e487b7160e01b600052604160045260246000fd5b600181811c908216806200024d57607f821691505b6020821081036200026e57634e487b7160e01b600052602260045260246000fd5b50919050565b601f821115620002c257600081815260208120601f850160051c810160208610156200029d5750805b601f850160051c820191505b81811015620002be57828155600101620002a9565b5050505b505050565b81516001600160401b03811115620002e357620002e362000222565b620002fb81620002f4845462000238565b8462000274565b602080601f8311600181146200033357600084156200031a5750858301515b600019600386901b1c1916600185901b178555620002be565b600085815260208120601f198616915b82811015620003645788860151825594840194600190910190840162000343565b5085821015620003835787850151600019600388901b60f8161c191681555b5050505050600190811b01905550565b60805160a05160c05160e0516101005161012051612372620003e360003960006111280152600061117701526000611152015260006110ab015260006110d5015260006110ff01526123726000f3fe608060405234801561001057600080fd5b50600436106101e55760003560e01c80636fcfff451161010f578063a457c2d7116100a2578063d539139311610071578063d53913931461044a578063d547741f14610471578063dd62ed3e14610484578063f1127ed81461049757600080fd5b8063a457c2d7146103fe578063a9059cbb14610411578063c3cda52014610424578063d505accf1461043757600080fd5b806391d14854116100de57806391d14854146103c857806395d89b41146103db5780639ab24eb0146103e3578063a217fddf146103f657600080fd5b80636fcfff451461035157806370a08231146103795780637ecebe00146103a25780638e539e8c146103b557600080fd5b8063313ce567116101875780633a46b1a8116101565780633a46b1a8146102d457806340c10f19146102e7578063587cde1e146102fa5780635c19a95c1461033e57600080fd5b8063313ce567146102975780633644e515146102a657806336568abe146102ae57806339509351146102c157600080fd5b806318160ddd116101c357806318160ddd1461023a57806323b872dd1461024c578063248a9ca31461025f5780632f2ff15d1461028257600080fd5b806301ffc9a7146101ea57806306fdde0314610212578063095ea7b314610227575b600080fd5b6101fd6101f8366004611f0f565b6104d4565b60405190151581526020015b60405180910390f35b61021a61050b565b6040516102099190611f5d565b6101fd610235366004611fac565b61059d565b6002545b604051908152602001610209565b6101fd61025a366004611fd6565b6105b5565b61023e61026d366004612012565b60009081526005602052604090206001015490565b61029561029036600461202b565b6105d9565b005b60405160128152602001610209565b61023e610603565b6102956102bc36600461202b565b610612565b6101fd6102cf366004611fac565b610695565b61023e6102e2366004611fac565b6106b7565b6102956102f5366004611fac565b610731565b610326610308366004612057565b6001600160a01b039081166000908152600860205260409020541690565b6040516001600160a01b039091168152602001610209565b61029561034c366004612057565b610765565b61036461035f366004612057565b610772565b60405163ffffffff9091168152602001610209565b61023e610387366004612057565b6001600160a01b031660009081526020819052604090205490565b61023e6103b0366004612057565b610794565b61023e6103c3366004612012565b6107b2565b6101fd6103d636600461202b565b61080e565b61021a610839565b61023e6103f1366004612057565b610848565b61023e600081565b6101fd61040c366004611fac565b6108cf565b6101fd61041f366004611fac565b61094a565b610295610432366004612083565b610958565b6102956104453660046120db565b610a8e565b61023e7f9f2df0fed2c77648de5860a4cc508cd0818c85b8b8a1ab4ceeef8d981c8956a681565b61029561047f36600461202b565b610bf2565b61023e610492366004612145565b610c17565b6104aa6104a536600461216f565b610c42565b60408051825163ffffffff1681526020928301516001600160e01b03169281019290925201610209565b60006001600160e01b03198216637965db0b60e01b148061050557506301ffc9a760e01b6001600160e01b03198316145b92915050565b60606003805461051a906121af565b80601f0160208091040260200160405190810160405280929190818152602001828054610546906121af565b80156105935780601f1061056857610100808354040283529160200191610593565b820191906000526020600020905b81548152906001019060200180831161057657829003601f168201915b5050505050905090565b6000336105ab818585610cc6565b5060019392505050565b6000336105c3858285610dea565b6105ce858585610e64565b506001949350505050565b6000828152600560205260409020600101546105f48161100e565b6105fe8383611018565b505050565b600061060d61109e565b905090565b6001600160a01b03811633146106875760405162461bcd60e51b815260206004820152602f60248201527f416363657373436f6e74726f6c3a2063616e206f6e6c792072656e6f756e636560448201526e103937b632b9903337b91039b2b63360891b60648201526084015b60405180910390fd5b61069182826111c5565b5050565b6000336105ab8185856106a88383610c17565b6106b291906121f9565b610cc6565b60004382106107085760405162461bcd60e51b815260206004820152601f60248201527f4552433230566f7465733a20626c6f636b206e6f7420796574206d696e656400604482015260640161067e565b6001600160a01b038316600090815260096020526040902061072a908361122c565b9392505050565b7f9f2df0fed2c77648de5860a4cc508cd0818c85b8b8a1ab4ceeef8d981c8956a661075b8161100e565b6105fe8383611323565b61076f338261132d565b50565b6001600160a01b038116600090815260096020526040812054610505906113a6565b6001600160a01b038116600090815260066020526040812054610505565b60004382106108035760405162461bcd60e51b815260206004820152601f60248201527f4552433230566f7465733a20626c6f636b206e6f7420796574206d696e656400604482015260640161067e565b610505600a8361122c565b60009182526005602090815260408084206001600160a01b0393909316845291905290205460ff1690565b60606004805461051a906121af565b6001600160a01b03811660009081526009602052604081205480156108bc576001600160a01b038316600090815260096020526040902061088a60018361220c565b8154811061089a5761089a61221f565b60009182526020909120015464010000000090046001600160e01b03166108bf565b60005b6001600160e01b03169392505050565b600033816108dd8286610c17565b90508381101561093d5760405162461bcd60e51b815260206004820152602560248201527f45524332303a2064656372656173656420616c6c6f77616e63652062656c6f77604482015264207a65726f60d81b606482015260840161067e565b6105ce8286868403610cc6565b6000336105ab818585610e64565b834211156109a85760405162461bcd60e51b815260206004820152601d60248201527f4552433230566f7465733a207369676e61747572652065787069726564000000604482015260640161067e565b604080517fe48329057bfd03d55e49b547132e39cffd9c1820ad7b9d4c5307691425d15adf60208201526001600160a01b038816918101919091526060810186905260808101859052600090610a2290610a1a9060a0016040516020818303038152906040528051906020012061140f565b85858561145d565b9050610a2d81611485565b8614610a7b5760405162461bcd60e51b815260206004820152601960248201527f4552433230566f7465733a20696e76616c6964206e6f6e636500000000000000604482015260640161067e565b610a85818861132d565b50505050505050565b83421115610ade5760405162461bcd60e51b815260206004820152601d60248201527f45524332305065726d69743a206578706972656420646561646c696e65000000604482015260640161067e565b60007f6e71edae12b1b97f4d1f60370fef10105fa2faae0126114a169c64845d6126c9888888610b0d8c611485565b6040805160208101969096526001600160a01b0394851690860152929091166060840152608083015260a082015260c0810186905260e0016040516020818303038152906040528051906020012090506000610b688261140f565b90506000610b788287878761145d565b9050896001600160a01b0316816001600160a01b031614610bdb5760405162461bcd60e51b815260206004820152601e60248201527f45524332305065726d69743a20696e76616c6964207369676e61747572650000604482015260640161067e565b610be68a8a8a610cc6565b50505050505050505050565b600082815260056020526040902060010154610c0d8161100e565b6105fe83836111c5565b6001600160a01b03918216600090815260016020908152604080832093909416825291909152205490565b60408051808201909152600080825260208201526001600160a01b0383166000908152600960205260409020805463ffffffff8416908110610c8657610c8661221f565b60009182526020918290206040805180820190915291015463ffffffff8116825264010000000090046001600160e01b0316918101919091529392505050565b6001600160a01b038316610d285760405162461bcd60e51b8152602060048201526024808201527f45524332303a20617070726f76652066726f6d20746865207a65726f206164646044820152637265737360e01b606482015260840161067e565b6001600160a01b038216610d895760405162461bcd60e51b815260206004820152602260248201527f45524332303a20617070726f766520746f20746865207a65726f206164647265604482015261737360f01b606482015260840161067e565b6001600160a01b0383811660008181526001602090815260408083209487168084529482529182902085905590518481527f8c5be1e5ebec7d5bd14f71427d1e84f3dd0314c0f7b2291e5b200ac8c7c3b925910160405180910390a3505050565b6000610df68484610c17565b90506000198114610e5e5781811015610e515760405162461bcd60e51b815260206004820152601d60248201527f45524332303a20696e73756666696369656e7420616c6c6f77616e6365000000604482015260640161067e565b610e5e8484848403610cc6565b50505050565b6001600160a01b038316610ec85760405162461bcd60e51b815260206004820152602560248201527f45524332303a207472616e736665722066726f6d20746865207a65726f206164604482015264647265737360d81b606482015260840161067e565b6001600160a01b038216610f2a5760405162461bcd60e51b815260206004820152602360248201527f45524332303a207472616e7366657220746f20746865207a65726f206164647260448201526265737360e81b606482015260840161067e565b6001600160a01b03831660009081526020819052604090205481811015610fa25760405162461bcd60e51b815260206004820152602660248201527f45524332303a207472616e7366657220616d6f756e7420657863656564732062604482015265616c616e636560d01b606482015260840161067e565b6001600160a01b03848116600081815260208181526040808320878703905593871680835291849020805487019055925185815290927fddf252ad1be2c89b69c2b068fc378daa952ba7f163c4a11628f55a4df523b3ef910160405180910390a3610e5e8484846114ad565b61076f81336114b8565b611022828261080e565b6106915760008281526005602090815260408083206001600160a01b03851684529091529020805460ff1916600117905561105a3390565b6001600160a01b0316816001600160a01b0316837f2f8788117e7eff1d82e926ec794901d17c78024a50270940304540a733656f0d60405160405180910390a45050565b6000306001600160a01b037f0000000000000000000000000000000000000000000000000000000000000000161480156110f757507f000000000000000000000000000000000000000000000000000000000000000046145b1561112157507f000000000000000000000000000000000000000000000000000000000000000090565b50604080517f00000000000000000000000000000000000000000000000000000000000000006020808301919091527f0000000000000000000000000000000000000000000000000000000000000000828401527f000000000000000000000000000000000000000000000000000000000000000060608301524660808301523060a0808401919091528351808403909101815260c0909201909252805191012090565b6111cf828261080e565b156106915760008281526005602090815260408083206001600160a01b0385168085529252808320805460ff1916905551339285917ff6391f5c32d9c69d2a47ea670b442974b53935d1edc7fd64eb21e047a839171b9190a45050565b81546000908181600581111561128657600061124784611511565b611251908561220c565b600088815260209020909150869082015463ffffffff16111561127657809150611284565b6112818160016121f9565b92505b505b808210156112d357600061129a83836115f9565b600088815260209020909150869082015463ffffffff1611156112bf578091506112cd565b6112ca8160016121f9565b92505b50611286565b801561130d576112f6866112e860018461220c565b600091825260209091200190565b5464010000000090046001600160e01b0316611310565b60005b6001600160e01b03169695505050505050565b6106918282611614565b6001600160a01b038281166000818152600860208181526040808420805485845282862054949093528787166001600160a01b03198416811790915590519190951694919391928592917f3134e8a2e6d97e929a7e54011ea5485d7d196dd5f0ba4d4ef95803e8e3fc257f9190a4610e5e82848361169e565b600063ffffffff82111561140b5760405162461bcd60e51b815260206004820152602660248201527f53616665436173743a2076616c756520646f65736e27742066697420696e203360448201526532206269747360d01b606482015260840161067e565b5090565b600061050561141c61109e565b8360405161190160f01b6020820152602281018390526042810182905260009060620160405160208183030381529060405280519060200120905092915050565b600080600061146e878787876117db565b9150915061147b8161189f565b5095945050505050565b6001600160a01b03811660009081526006602052604090208054600181018255905b50919050565b6105fe8383836119e9565b6114c2828261080e565b610691576114cf81611a1b565b6114da836020611a2d565b6040516020016114eb929190612235565b60408051601f198184030181529082905262461bcd60e51b825261067e91600401611f5d565b60008160000361152357506000919050565b6000600161153084611bc9565b901c6001901b90506001818481611549576115496122aa565b048201901c90506001818481611561576115616122aa565b048201901c90506001818481611579576115796122aa565b048201901c90506001818481611591576115916122aa565b048201901c905060018184816115a9576115a96122aa565b048201901c905060018184816115c1576115c16122aa565b048201901c905060018184816115d9576115d96122aa565b048201901c905061072a818285816115f3576115f36122aa565b04611c5d565b600061160860028484186122c0565b61072a908484166121f9565b61161e8282611c73565b6002546001600160e01b0310156116905760405162461bcd60e51b815260206004820152603060248201527f4552433230566f7465733a20746f74616c20737570706c79207269736b73206f60448201526f766572666c6f77696e6720766f74657360801b606482015260840161067e565b610e5e600a611d3a83611d46565b816001600160a01b0316836001600160a01b0316141580156116c05750600081115b156105fe576001600160a01b0383161561174e576001600160a01b038316600090815260096020526040812081906116fb90611e9a85611d46565b91509150846001600160a01b03167fdec2bacdd2f05b59de34da9b523dff8be42e5e38e818c82fdb0bae774387a7248383604051611743929190918252602082015260400190565b60405180910390a250505b6001600160a01b038216156105fe576001600160a01b0382166000908152600960205260408120819061178490611d3a85611d46565b91509150836001600160a01b03167fdec2bacdd2f05b59de34da9b523dff8be42e5e38e818c82fdb0bae774387a72483836040516117cc929190918252602082015260400190565b60405180910390a25050505050565b6000807f7fffffffffffffffffffffffffffffff5d576e7357a4501ddfe92f46681b20a08311156118125750600090506003611896565b6040805160008082526020820180845289905260ff881692820192909252606081018690526080810185905260019060a0016020604051602081039080840390855afa158015611866573d6000803e3d6000fd5b5050604051601f1901519150506001600160a01b03811661188f57600060019250925050611896565b9150600090505b94509492505050565b60008160048111156118b3576118b36122e2565b036118bb5750565b60018160048111156118cf576118cf6122e2565b0361191c5760405162461bcd60e51b815260206004820152601860248201527f45434453413a20696e76616c6964207369676e61747572650000000000000000604482015260640161067e565b6002816004811115611930576119306122e2565b0361197d5760405162461bcd60e51b815260206004820152601f60248201527f45434453413a20696e76616c6964207369676e6174757265206c656e67746800604482015260640161067e565b6003816004811115611991576119916122e2565b0361076f5760405162461bcd60e51b815260206004820152602260248201527f45434453413a20696e76616c6964207369676e6174757265202773272076616c604482015261756560f01b606482015260840161067e565b6001600160a01b038381166000908152600860205260408082205485841683529120546105fe9291821691168361169e565b60606105056001600160a01b03831660145b60606000611a3c8360026122f8565b611a479060026121f9565b67ffffffffffffffff811115611a5f57611a5f61230f565b6040519080825280601f01601f191660200182016040528015611a89576020820181803683370190505b509050600360fc1b81600081518110611aa457611aa461221f565b60200101906001600160f81b031916908160001a905350600f60fb1b81600181518110611ad357611ad361221f565b60200101906001600160f81b031916908160001a9053506000611af78460026122f8565b611b029060016121f9565b90505b6001811115611b7a576f181899199a1a9b1b9c1cb0b131b232b360811b85600f1660108110611b3657611b3661221f565b1a60f81b828281518110611b4c57611b4c61221f565b60200101906001600160f81b031916908160001a90535060049490941c93611b7381612325565b9050611b05565b50831561072a5760405162461bcd60e51b815260206004820181905260248201527f537472696e67733a20686578206c656e67746820696e73756666696369656e74604482015260640161067e565b600080608083901c15611bde57608092831c92015b604083901c15611bf057604092831c92015b602083901c15611c0257602092831c92015b601083901c15611c1457601092831c92015b600883901c15611c2657600892831c92015b600483901c15611c3857600492831c92015b600283901c15611c4a57600292831c92015b600183901c156105055760010192915050565b6000818310611c6c578161072a565b5090919050565b6001600160a01b038216611cc95760405162461bcd60e51b815260206004820152601f60248201527f45524332303a206d696e7420746f20746865207a65726f206164647265737300604482015260640161067e565b8060026000828254611cdb91906121f9565b90915550506001600160a01b038216600081815260208181526040808320805486019055518481527fddf252ad1be2c89b69c2b068fc378daa952ba7f163c4a11628f55a4df523b3ef910160405180910390a3610691600083836114ad565b600061072a82846121f9565b82546000908190818115611d9357611d63876112e860018561220c565b60408051808201909152905463ffffffff8116825264010000000090046001600160e01b03166020820152611da8565b60408051808201909152600080825260208201525b905080602001516001600160e01b03169350611dc884868863ffffffff16565b9250600082118015611de05750805163ffffffff1643145b15611e2557611dee83611ea6565b611dfd886112e860018661220c565b80546001600160e01b03929092166401000000000263ffffffff909216919091179055611e90565b866040518060400160405280611e3a436113a6565b63ffffffff168152602001611e4e86611ea6565b6001600160e01b0390811690915282546001810184556000938452602093849020835194909301519091166401000000000263ffffffff909316929092179101555b5050935093915050565b600061072a828461220c565b60006001600160e01b0382111561140b5760405162461bcd60e51b815260206004820152602760248201527f53616665436173743a2076616c756520646f65736e27742066697420696e20326044820152663234206269747360c81b606482015260840161067e565b600060208284031215611f2157600080fd5b81356001600160e01b03198116811461072a57600080fd5b60005b83811015611f54578181015183820152602001611f3c565b50506000910152565b6020815260008251806020840152611f7c816040850160208701611f39565b601f01601f19169190910160400192915050565b80356001600160a01b0381168114611fa757600080fd5b919050565b60008060408385031215611fbf57600080fd5b611fc883611f90565b946020939093013593505050565b600080600060608486031215611feb57600080fd5b611ff484611f90565b925061200260208501611f90565b9150604084013590509250925092565b60006020828403121561202457600080fd5b5035919050565b6000806040838503121561203e57600080fd5b8235915061204e60208401611f90565b90509250929050565b60006020828403121561206957600080fd5b61072a82611f90565b803560ff81168114611fa757600080fd5b60008060008060008060c0878903121561209c57600080fd5b6120a587611f90565b955060208701359450604087013593506120c160608801612072565b92506080870135915060a087013590509295509295509295565b600080600080600080600060e0888a0312156120f657600080fd5b6120ff88611f90565b965061210d60208901611f90565b9550604088013594506060880135935061212960808901612072565b925060a0880135915060c0880135905092959891949750929550565b6000806040838503121561215857600080fd5b61216183611f90565b915061204e60208401611f90565b6000806040838503121561218257600080fd5b61218b83611f90565b9150602083013563ffffffff811681146121a457600080fd5b809150509250929050565b600181811c908216806121c357607f821691505b6020821081036114a757634e487b7160e01b600052602260045260246000fd5b634e487b7160e01b600052601160045260246000fd5b80820180821115610505576105056121e3565b81810381811115610505576105056121e3565b634e487b7160e01b600052603260045260246000fd5b7f416363657373436f6e74726f6c3a206163636f756e742000000000000000000081526000835161226d816017850160208801611f39565b7001034b99036b4b9b9b4b733903937b6329607d1b601791840191820152835161229e816028840160208801611f39565b01602801949350505050565b634e487b7160e01b600052601260045260246000fd5b6000826122dd57634e487b7160e01b600052601260045260246000fd5b500490565b634e487b7160e01b600052602160045260246000fd5b8082028115828204841417610505576105056121e3565b634e487b7160e01b600052604160045260246000fd5b600081612334576123346121e3565b50600019019056fea264697066735822122008b6ae73b2445c8a43fe979044557197b48795427f061f09bacbf4d53bff072764736f6c63430008110033",
  "linkReferences": {},
  "deployedLinkReferences": {}
}